{
  "contractName": "EbookStorage",
  "abi": [
    {
      "inputs": [
        {
          "internalType": "contract DBookToken",
          "name": "_token",
          "type": "address"
        }
      ],
      "stateMutability": "nonpayable",
      "type": "constructor"
    },
    {
      "inputs": [
        {
          "internalType": "string",
          "name": "",
          "type": "string"
        }
      ],
      "name": "authorOf",
      "outputs": [
        {
          "internalType": "address",
          "name": "",
          "type": "address"
        }
      ],
      "stateMutability": "view",
      "type": "function"
    },
    {
      "inputs": [
        {
          "internalType": "address",
          "name": "",
          "type": "address"
        },
        {
          "internalType": "uint256",
          "name": "",
          "type": "uint256"
        }
      ],
      "name": "clientLib",
      "outputs": [
        {
          "internalType": "string",
          "name": "",
          "type": "string"
        }
      ],
      "stateMutability": "view",
      "type": "function"
    },
    {
      "inputs": [
        {
          "internalType": "address",
          "name": "",
          "type": "address"
        }
      ],
      "name": "clientLibCount",
      "outputs": [
        {
          "internalType": "uint256",
          "name": "",
          "type": "uint256"
        }
      ],
      "stateMutability": "view",
      "type": "function"
    },
    {
      "inputs": [
        {
          "internalType": "address",
          "name": "",
          "type": "address"
        }
      ],
      "name": "ebookCount",
      "outputs": [
        {
          "internalType": "uint256",
          "name": "",
          "type": "uint256"
        }
      ],
      "stateMutability": "view",
      "type": "function"
    },
    {
      "inputs": [
        {
          "internalType": "address",
          "name": "",
          "type": "address"
        },
        {
          "internalType": "uint256",
          "name": "",
          "type": "uint256"
        }
      ],
      "name": "ebookSource",
      "outputs": [
        {
          "internalType": "string",
          "name": "",
          "type": "string"
        }
      ],
      "stateMutability": "view",
      "type": "function"
    },
    {
      "inputs": [
        {
          "internalType": "address",
          "name": "",
          "type": "address"
        },
        {
          "internalType": "string",
          "name": "",
          "type": "string"
        }
      ],
      "name": "isEbookOwned",
      "outputs": [
        {
          "internalType": "bool",
          "name": "",
          "type": "bool"
        }
      ],
      "stateMutability": "view",
      "type": "function"
    },
    {
      "inputs": [],
      "name": "token",
      "outputs": [
        {
          "internalType": "contract DBookToken",
          "name": "",
          "type": "address"
        }
      ],
      "stateMutability": "view",
      "type": "function"
    },
    {
      "inputs": [
        {
          "internalType": "string",
          "name": "_source",
          "type": "string"
        }
      ],
      "name": "publishBook",
      "outputs": [],
      "stateMutability": "nonpayable",
      "type": "function"
    },
    {
      "inputs": [
        {
          "internalType": "address",
          "name": "_author",
          "type": "address"
        },
        {
          "internalType": "string",
          "name": "_source",
          "type": "string"
        }
      ],
      "name": "purchaseBook",
      "outputs": [],
      "stateMutability": "nonpayable",
      "type": "function"
    }
  ],
  "bytecode": "0x608060405234801561001057600080fd5b50604051610af3380380610af38339818101604052602081101561003357600080fd5b5051600080546001600160a01b03199081163317909155600180546001600160a01b0390931692909116919091179055610a81806100726000396000f3fe608060405234801561001057600080fd5b50600436106100935760003560e01c8063b459fcbc11610066578063b459fcbc146102df578063c3ecc85714610393578063cc6091dd146103b9578063dff934e014610479578063fc0c546a146104a557610093565b8063456529a7146100985780636725b387146101395780636dd67886146101715780639d2831e814610239575b600080fd5b6100c4600480360360408110156100ae57600080fd5b506001600160a01b0381351690602001356104ad565b6040805160208082528351818301528351919283929083019185019080838360005b838110156100fe5781810151838201526020016100e6565b50505050905090810190601f16801561012b5780820380516001836020036101000a031916815260200191505b509250505060405180910390f35b61015f6004803603602081101561014f57600080fd5b50356001600160a01b0316610550565b60408051918252519081900360200190f35b6102256004803603604081101561018757600080fd5b6001600160a01b038235169190810190604081016020820135600160201b8111156101b157600080fd5b8201836020820111156101c357600080fd5b803590602001918460018302840111600160201b831117156101e457600080fd5b91908080601f016020809104026020016040519081016040528093929190818152602001838380828437600092019190915250929550610562945050505050565b604080519115158252519081900360200190f35b6102dd6004803603602081101561024f57600080fd5b810190602081018135600160201b81111561026957600080fd5b82018360208201111561027b57600080fd5b803590602001918460018302840111600160201b8311171561029c57600080fd5b91908080601f016020809104026020016040519081016040528093929190818152602001838380828437600092019190915250929550610593945050505050565b005b6102dd600480360360408110156102f557600080fd5b6001600160a01b038235169190810190604081016020820135600160201b81111561031f57600080fd5b82018360208201111561033157600080fd5b803590602001918460018302840111600160201b8311171561035257600080fd5b91908080601f016020809104026020016040519081016040528093929190818152602001838380828437600092019190915250929550610721945050505050565b61015f600480360360208110156103a957600080fd5b50356001600160a01b0316610900565b61045d600480360360208110156103cf57600080fd5b810190602081018135600160201b8111156103e957600080fd5b8201836020820111156103fb57600080fd5b803590602001918460018302840111600160201b8311171561041c57600080fd5b91908080601f016020809104026020016040519081016040528093929190818152602001838380828437600092019190915250929550610912945050505050565b604080516001600160a01b039092168252519081900360200190f35b6100c46004803603604081101561048f57600080fd5b506001600160a01b038135169060200135610938565b61045d6109a9565b6002602081815260009384526040808520825292845292829020805483516001821615610100026000190190911692909204601f810185900485028301850190935282825290929091908301828280156105485780601f1061051d57610100808354040283529160200191610548565b820191906000526020600020905b81548152906001019060200180831161052b57829003601f168201915b505050505081565b60066020526000908152604090205481565b6007602090815260009283526040909220815180830184018051928152908401929093019190912091525460ff1681565b8060006001600160a01b03166004826040518082805190602001908083835b602083106105d15780518252601f1990920191602091820191016105b2565b51815160209384036101000a60001901801990921691161790529201948552506040519384900301909220546001600160a01b03169290921491506106589050576040805162461bcd60e51b8152602060048201526016602482015275109bdbdac81a5cc8185b1c9958591e481a5cdcdd595960521b604482015290519081900360640190fd5b3360009081526002602090815260408083206003835281842054845282529091208351610687928501906109b8565b50336004836040518082805190602001908083835b602083106106bb5780518252601f19909201916020918201910161069c565b51815160209384036101000a60001901801990921691161790529201948552506040805194859003820190942080546001600160a01b0319166001600160a01b039690961695909517909455505033600090815260039092529020805460010190555050565b8060076000336001600160a01b03166001600160a01b03168152602001908152602001600020816040518082805190602001908083835b602083106107775780518252601f199092019160209182019101610758565b51815160209384036101000a600019018019909216911617905292019485525060405193849003019092205460ff161591506107fc9050576040805162461bcd60e51b815260206004820152601960248201527f596f7520616c7265616479206f776e207468652065626f6f6b00000000000000604482015290519081900360640190fd5b6001546040805163a9059cbb60e01b81526001600160a01b038681166004830152670de0b6b3a764000060248301529151919092169163a9059cbb9160448083019260209291908290030181600087803b15801561085957600080fd5b505af115801561086d573d6000803e3d6000fd5b505050506040513d602081101561088357600080fd5b50516108cb576040805162461bcd60e51b8152602060048201526012602482015271151c985b9cd858dd1a5bdb8819985a5b195960721b604482015290519081900360640190fd5b33600090815260056020908152604080832060068352818420548452825290912083516108fa928501906109b8565b50505050565b60036020526000908152604090205481565b80516020818301810180516004825292820191909301209152546001600160a01b031681565b60056020908152600092835260408084208252918352918190208054825160026001831615610100026000190190921691909104601f8101859004850282018501909352828152929091908301828280156105485780601f1061051d57610100808354040283529160200191610548565b6001546001600160a01b031681565b828054600181600116156101000203166002900490600052602060002090601f016020900481019282601f106109f957805160ff1916838001178555610a26565b82800160010185558215610a26579182015b82811115610a26578251825591602001919060010190610a0b565b50610a32929150610a36565b5090565b5b80821115610a325760008155600101610a3756fea2646970667358221220c97b052e11490be94e28ac33d29a85d8152f5f3fe63764d70d371f014aec69aa64736f6c634300060c0033",
  "immutableReferences": {},
  "source": "// SPDX-License-Identifier: MIT\npragma solidity ^0.6.0;\n\n// import \"@openzeppelin/contracts-ethereum-package/contracts/Initializable.sol\";\nimport './DBookToken.sol';\n\ncontract EbookStorage  {\n    address owner;\n    DBookToken public token;\n\n\n\n    // list of books issued by an author identified by thier address i.e. ebookSource[address][]\n    mapping (address => mapping(uint => string)) public ebookSource;\n    // count of books published by an author\n    mapping (address => uint) public ebookCount;\n    // mapping of ebook source to an author\n    mapping (string => address) public authorOf;\n\n\n\n    // list of books owned by a client identified by thier address i.e. clientLib[address][]\n    mapping (address => mapping(uint => string)) public clientLib;\n    // list of books owned by a client identified by thier address i.e. clientLib[address][]\n    mapping (address => uint) public clientLibCount;\n    // bool for book owned by a client\n    mapping (address => mapping(string => bool)) public isEbookOwned;\n\n\n\n    modifier isNotIssued(string memory _source) {\n        require(authorOf[_source] == address(0), 'Book is already issued');\n        _;\n    }\n\n\n\n    modifier isNotPurchased(string memory _source) {\n        require(!isEbookOwned[msg.sender][_source], 'You already own the ebook');\n        _;\n    }\n\n\n\n    constructor(DBookToken _token) public {\n        owner = msg.sender;\n        token = _token;\n    }\n\n\n\n    function publishBook(string memory _source) public isNotIssued(_source) {\n        ebookSource[msg.sender][ebookCount[msg.sender]] = _source;\n        authorOf[_source] = msg.sender;\n        ebookCount[msg.sender]++;\n    }\n\n\n\n    function purchaseBook(address _author,  string memory _source) public isNotPurchased(_source) {\n        require(token.transfer(_author, 1 ether), 'Transaction failed');\n\n        // add the book to the client's library\n        clientLib[msg.sender][clientLibCount[msg.sender]] = _source;\n    }\n}\n",
  "sourcePath": "/home/meeexy/Documents/dev/dbooks/contracts/EbookStorage.sol",
  "compiler": {
    "name": "solc",
    "version": "0.6.12+commit.27d51765.Emscripten.clang"
  },
  "schemaVersion": "3.3.1",
  "updatedAt": "2020-11-04T14:22:02.042Z",
  "devdoc": {
    "kind": "dev",
    "methods": {},
    "version": 1
  },
  "userdoc": {
    "kind": "user",
    "methods": {},
    "version": 1
  }
}