{
  "contractName": "EBookStorage",
  "abi": [
    {
      "inputs": [
        {
          "internalType": "contract DBookToken",
          "name": "_token",
          "type": "address"
        }
      ],
      "stateMutability": "nonpayable",
      "type": "constructor"
    },
    {
      "anonymous": false,
      "inputs": [
        {
          "indexed": true,
          "internalType": "address",
          "name": "_author",
          "type": "address"
        },
        {
          "indexed": false,
          "internalType": "string",
          "name": "_source",
          "type": "string"
        },
        {
          "indexed": false,
          "internalType": "string",
          "name": "_title",
          "type": "string"
        },
        {
          "indexed": false,
          "internalType": "uint256",
          "name": "_price",
          "type": "uint256"
        }
      ],
      "name": "publishedBookEvent",
      "type": "event"
    },
    {
      "anonymous": false,
      "inputs": [
        {
          "indexed": true,
          "internalType": "address",
          "name": "_client",
          "type": "address"
        },
        {
          "indexed": true,
          "internalType": "address",
          "name": "_author",
          "type": "address"
        },
        {
          "indexed": false,
          "internalType": "string",
          "name": "_source",
          "type": "string"
        },
        {
          "indexed": false,
          "internalType": "uint256",
          "name": "_amount",
          "type": "uint256"
        }
      ],
      "name": "purchasedBookEvent",
      "type": "event"
    },
    {
      "inputs": [
        {
          "internalType": "string",
          "name": "",
          "type": "string"
        }
      ],
      "name": "authorOf",
      "outputs": [
        {
          "internalType": "address",
          "name": "",
          "type": "address"
        }
      ],
      "stateMutability": "view",
      "type": "function",
      "constant": true
    },
    {
      "inputs": [
        {
          "internalType": "address",
          "name": "",
          "type": "address"
        },
        {
          "internalType": "uint256",
          "name": "",
          "type": "uint256"
        }
      ],
      "name": "clientLib",
      "outputs": [
        {
          "internalType": "string",
          "name": "title",
          "type": "string"
        },
        {
          "internalType": "string",
          "name": "source",
          "type": "string"
        },
        {
          "internalType": "uint256",
          "name": "price",
          "type": "uint256"
        }
      ],
      "stateMutability": "view",
      "type": "function",
      "constant": true
    },
    {
      "inputs": [
        {
          "internalType": "address",
          "name": "",
          "type": "address"
        }
      ],
      "name": "clientLibCount",
      "outputs": [
        {
          "internalType": "uint256",
          "name": "",
          "type": "uint256"
        }
      ],
      "stateMutability": "view",
      "type": "function",
      "constant": true
    },
    {
      "inputs": [
        {
          "internalType": "address",
          "name": "",
          "type": "address"
        }
      ],
      "name": "ebookCount",
      "outputs": [
        {
          "internalType": "uint256",
          "name": "",
          "type": "uint256"
        }
      ],
      "stateMutability": "view",
      "type": "function",
      "constant": true
    },
    {
      "inputs": [
        {
          "internalType": "address",
          "name": "",
          "type": "address"
        },
        {
          "internalType": "uint256",
          "name": "",
          "type": "uint256"
        }
      ],
      "name": "ebookSource",
      "outputs": [
        {
          "internalType": "string",
          "name": "title",
          "type": "string"
        },
        {
          "internalType": "string",
          "name": "source",
          "type": "string"
        },
        {
          "internalType": "uint256",
          "name": "price",
          "type": "uint256"
        }
      ],
      "stateMutability": "view",
      "type": "function",
      "constant": true
    },
    {
      "inputs": [
        {
          "internalType": "address",
          "name": "",
          "type": "address"
        },
        {
          "internalType": "string",
          "name": "",
          "type": "string"
        }
      ],
      "name": "isEbookOwned",
      "outputs": [
        {
          "internalType": "bool",
          "name": "",
          "type": "bool"
        }
      ],
      "stateMutability": "view",
      "type": "function",
      "constant": true
    },
    {
      "inputs": [
        {
          "internalType": "string",
          "name": "",
          "type": "string"
        }
      ],
      "name": "sourceToPrice",
      "outputs": [
        {
          "internalType": "uint256",
          "name": "",
          "type": "uint256"
        }
      ],
      "stateMutability": "view",
      "type": "function",
      "constant": true
    },
    {
      "inputs": [
        {
          "internalType": "string",
          "name": "",
          "type": "string"
        }
      ],
      "name": "sourceToTitle",
      "outputs": [
        {
          "internalType": "string",
          "name": "",
          "type": "string"
        }
      ],
      "stateMutability": "view",
      "type": "function",
      "constant": true
    },
    {
      "inputs": [],
      "name": "token",
      "outputs": [
        {
          "internalType": "contract DBookToken",
          "name": "",
          "type": "address"
        }
      ],
      "stateMutability": "view",
      "type": "function",
      "constant": true
    },
    {
      "inputs": [
        {
          "internalType": "string",
          "name": "_source",
          "type": "string"
        },
        {
          "internalType": "string",
          "name": "_title",
          "type": "string"
        },
        {
          "internalType": "uint256",
          "name": "_price",
          "type": "uint256"
        }
      ],
      "name": "publishBook",
      "outputs": [],
      "stateMutability": "nonpayable",
      "type": "function"
    },
    {
      "inputs": [
        {
          "internalType": "address",
          "name": "_author",
          "type": "address"
        },
        {
          "internalType": "string",
          "name": "_source",
          "type": "string"
        },
        {
          "internalType": "uint256",
          "name": "_amount",
          "type": "uint256"
        }
      ],
      "name": "purchaseBook",
      "outputs": [],
      "stateMutability": "nonpayable",
      "type": "function"
    }
  ],
  "bytecode": "0x608060405234801561001057600080fd5b5060405161148e38038061148e8339818101604052602081101561003357600080fd5b5051600080546001600160a01b03199081163317909155600180546001600160a01b039093169290911691909117905561141c806100726000396000f3fe608060405234801561001057600080fd5b50600436106100a95760003560e01c8063c3ecc85711610071578063c3ecc8571461047c578063c92ca39d146104a2578063cc6091dd14610522578063dff4f3ec146105e2578063dff934e01461070d578063fc0c546a14610739576100a9565b8063456529a7146100ae5780636725b387146101bf5780636a5cab80146101f75780636dd678861461029b57806373d3bb9a14610363575b600080fd5b6100da600480360360408110156100c457600080fd5b506001600160a01b038135169060200135610741565b604051808060200180602001848152602001838103835286818151815260200191508051906020019080838360005b83811015610121578181015183820152602001610109565b50505050905090810190601f16801561014e5780820380516001836020036101000a031916815260200191505b50838103825285518152855160209182019187019080838360005b83811015610181578181015183820152602001610169565b50505050905090810190601f1680156101ae5780820380516001836020036101000a031916815260200191505b509550505050505060405180910390f35b6101e5600480360360208110156101d557600080fd5b50356001600160a01b031661088a565b60408051918252519081900360200190f35b6101e56004803603602081101561020d57600080fd5b810190602081018135600160201b81111561022757600080fd5b82018360208201111561023957600080fd5b803590602001918460018302840111600160201b8311171561025a57600080fd5b91908080601f01602080910402602001604051908101604052809392919081815260200183838082843760009201919091525092955061089c945050505050565b61034f600480360360408110156102b157600080fd5b6001600160a01b038235169190810190604081016020820135600160201b8111156102db57600080fd5b8201836020820111156102ed57600080fd5b803590602001918460018302840111600160201b8311171561030e57600080fd5b91908080601f0160208091040260200160405190810160405280939291908181526020018383808284376000920191909152509295506108b9945050505050565b604080519115158252519081900360200190f35b6104076004803603602081101561037957600080fd5b810190602081018135600160201b81111561039357600080fd5b8201836020820111156103a557600080fd5b803590602001918460018302840111600160201b831117156103c657600080fd5b91908080601f0160208091040260200160405190810160405280939291908181526020018383808284376000920191909152509295506108ea945050505050565b6040805160208082528351818301528351919283929083019185019080838360005b83811015610441578181015183820152602001610429565b50505050905090810190601f16801561046e5780820380516001836020036101000a031916815260200191505b509250505060405180910390f35b6101e56004803603602081101561049257600080fd5b50356001600160a01b0316610991565b610520600480360360608110156104b857600080fd5b6001600160a01b038235169190810190604081016020820135600160201b8111156104e257600080fd5b8201836020820111156104f457600080fd5b803590602001918460018302840111600160201b8311171561051557600080fd5b9193509150356109a3565b005b6105c66004803603602081101561053857600080fd5b810190602081018135600160201b81111561055257600080fd5b82018360208201111561056457600080fd5b803590602001918460018302840111600160201b8311171561058557600080fd5b91908080601f016020809104026020016040519081016040528093929190818152602001838380828437600092019190915250929550610ed3945050505050565b604080516001600160a01b039092168252519081900360200190f35b610520600480360360608110156105f857600080fd5b810190602081018135600160201b81111561061257600080fd5b82018360208201111561062457600080fd5b803590602001918460018302840111600160201b8311171561064557600080fd5b91908080601f0160208091040260200160405190810160405280939291908181526020018383808284376000920191909152509295949360208101935035915050600160201b81111561069757600080fd5b8201836020820111156106a957600080fd5b803590602001918460018302840111600160201b831117156106ca57600080fd5b91908080601f0160208091040260200160405190810160405280939291908181526020018383808284376000920191909152509295505091359250610ef9915050565b6100da6004803603604081101561072357600080fd5b506001600160a01b0381351690602001356112b0565b6105c6611323565b6002602081815260009384526040808520825292845292829020805483516001821615610100026000190190911692909204601f810185900485028301850190935282825292909183918301828280156107dc5780601f106107b1576101008083540402835291602001916107dc565b820191906000526020600020905b8154815290600101906020018083116107bf57829003601f168201915b505050505090806001018054600181600116156101000203166002900480601f01602080910402602001604051908101604052809291908181526020018280546001816001161561010002031660029004801561087a5780601f1061084f5761010080835404028352916020019161087a565b820191906000526020600020905b81548152906001019060200180831161085d57829003601f168201915b5050505050908060020154905083565b60086020526000908152604090205481565b805160208183018101805160068252928201919093012091525481565b6009602090815260009283526040909220815180830184018051928152908401929093019190912091525460ff1681565b805160208183018101805160058252928201938201939093209190925280546040805160026001841615610100026000190190931692909204601f810185900485028301850190915280825290928301828280156109895780601f1061095e57610100808354040283529160200191610989565b820191906000526020600020905b81548152906001019060200180831161096c57829003601f168201915b505050505081565b60036020526000908152604090205481565b82828080601f0160208091040260200160405190810160405280939291908181526020018383808284376000920182905250338152600960209081526040918290209151865192955086945092508291908401908083835b60208310610a1a5780518252601f1990920191602091820191016109fb565b51815160209384036101000a600019018019909216911617905292019485525060405193849003019092205460ff16159150610a9f9050576040805162461bcd60e51b815260206004820152601960248201527f596f7520616c7265616479206f776e207468652065626f6f6b00000000000000604482015290519081900360640190fd5b846001600160a01b0316600485856040518083838082843791909101948552505060405192839003602001909220546001600160a01b0316929092149150610b309050576040805162461bcd60e51b815260206004820181905260248201527f417574686f7220686173206e6f742069737375656420746861742065626f6f6b604482015290519081900360640190fd5b600684846040518083838082843780830192505050925050509081526020016040518091039020548214610ba3576040805162461bcd60e51b815260206004820152601560248201527457726f6e6720616d6f756e74206f662066756e647360581b604482015290519081900360640190fd5b600154604080516323b872dd60e01b81523360048201526001600160a01b03888116602483015260448201869052915191909216916323b872dd9160648083019260209291908290030181600087803b158015610bff57600080fd5b505af1158015610c13573d6000803e3d6000fd5b505050506040513d6020811015610c2957600080fd5b5051610c71576040805162461bcd60e51b8152602060048201526012602482015271151c985b9cd858dd1a5bdb8819985a5b195960721b604482015290519081900360640190fd5b606060058585604051808383808284379190910194855250506040805160209481900385018120805460026001821615610100026000190190911604601f81018790048702830187019093528282529094909350909150830182828015610d195780601f10610cee57610100808354040283529160200191610d19565b820191906000526020600020905b815481529060010190602001808311610cfc57829003601f168201915b505050505090506000600686866040518083838082843780830192505050925050509081526020016040518091039020549050610d54611332565b604051806060016040528084815260200188888080601f0160208091040260200160405190810160405280939291908181526020018383808284376000920182905250938552505050602091820185905233815260078252604080822060088452818320548352835290208251805193945084939192610dd992849290910190611353565b506020828101518051610df29260018501920190611353565b50604091820151600290910155336000908152600960205281902090516001919089908990808383808284379190910194855250506040805160209481900385018120805460ff19169615159690961790955533600081815260088652829020805460010190559385018a905280855284018a905250506001600160a01b038a16917fa7b4a51ece4d55c1b16e3ad90e9c80970b7d81e1b8ef6cce6a78affc86a9185d908a908a908a908060608101858580828437600083820152604051601f909101601f1916909201829003965090945050505050a35050505050505050565b80516020818301810180516004825292820191909301209152546001600160a01b031681565b8260006001600160a01b03166004826040518082805190602001908083835b60208310610f375780518252601f199092019160209182019101610f18565b51815160209384036101000a60001901801990921691161790529201948552506040519384900301909220546001600160a01b0316929092149150610fbe9050576040805162461bcd60e51b8152602060048201526016602482015275109bdbdac81a5cc8185b1c9958591e481a5cdcdd595960521b604482015290519081900360640190fd5b6040805160608101825284815260208082018790528183018590523360009081526002825283812060038352848220548252825292909220815180519293919261100b9284920190611353565b5060208281015180516110249260018501920190611353565b5060408201518160020155905050336004856040518082805190602001908083835b602083106110655780518252601f199092019160209182019101611046565b51815160209384036101000a6000190180199092169116179052920194855250604051938490038101842080546001600160a01b0319166001600160a01b039690961695909517909455505085518592600592889290918291908401908083835b602083106110e55780518252601f1990920191602091820191016110c6565b51815160209384036101000a600019018019909216911617905292019485525060405193849003810190932084516111269591949190910192509050611353565b50816006856040518082805190602001908083835b6020831061115a5780518252601f19909201916020918201910161113b565b51815160209384036101000a600019018019909216911617905292019485525060408051948590038201852095909555336000818152600383528681208054600101905595850188905260608086528a5190860152895190957fdd591308ce829350fc08d50cd74030309d522466370e7caf533c20ae5b8c87f8958b95508a9450899390928392838301926080850192908901918190849084905b8381101561120d5781810151838201526020016111f5565b50505050905090810190601f16801561123a5780820380516001836020036101000a031916815260200191505b50838103825285518152855160209182019187019080838360005b8381101561126d578181015183820152602001611255565b50505050905090810190601f16801561129a5780820380516001836020036101000a031916815260200191505b509550505050505060405180910390a250505050565b600760209081526000928352604080842082529183529181902080548251601f6002600019610100600186161502019093169290920491820185900485028101850190935280835290928391908301828280156107dc5780601f106107b1576101008083540402835291602001916107dc565b6001546001600160a01b031681565b60405180606001604052806060815260200160608152602001600081525090565b828054600181600116156101000203166002900490600052602060002090601f016020900481019282601f1061139457805160ff19168380011785556113c1565b828001600101855582156113c1579182015b828111156113c15782518255916020019190600101906113a6565b506113cd9291506113d1565b5090565b5b808211156113cd57600081556001016113d256fea264697066735822122057e594c06e758de12ddca71651149456d0beb0d2662da19389528d4ec058e88864736f6c634300060c0033",
  "immutableReferences": {},
  "source": "// SPDX-License-Identifier: MIT\npragma solidity ^0.6.0;\n\n// import \"@openzeppelin/contracts-ethereum-package/contracts/Initializable.sol\";\nimport './DBookToken.sol';\n\ncontract EBookStorage  {\n    address owner;\n    DBookToken public token;\n\n    struct EBook {\n        string title;\n        string source;\n        uint price;\n    }\n\n    // list of books issued by an author identified by thier address i.e. ebookSource[address][]\n    mapping (address => mapping(uint => EBook)) public ebookSource;\n    // count of books published by an author\n    mapping (address => uint) public ebookCount;\n    // mapping of ebook source to an author\n    mapping (string => address) public authorOf;\n    // mapping of title to source\n    mapping (string => string) public sourceToTitle;\n    // mapping of source to price\n    mapping (string => uint) public sourceToPrice;\n\n\n\n    // list of books owned by a client identified by thier address i.e. clientLib[address][]\n    mapping (address => mapping(uint => EBook)) public clientLib;\n    // list of books owned by a client identified by thier address i.e. clientLib[address][]\n    mapping (address => uint) public clientLibCount;\n    // bool for book owned by a client\n    mapping (address => mapping(string => bool)) public isEbookOwned;\n\n\n    // set up events\n    event publishedBookEvent(address indexed _author, string _source, string _title, uint _price);\n    event purchasedBookEvent(address indexed _client, address indexed _author, string _source, uint _amount);\n\n\n    // set up modifiers\n    modifier isNotIssued(string memory _source) {\n        require(authorOf[_source] == address(0), 'Book is already issued');\n        _;\n    }\n\n\n\n    modifier isNotPurchased(string memory _source) {\n        require(!isEbookOwned[msg.sender][_source], 'You already own the ebook');\n        _;\n    }\n\n\n\n    constructor(DBookToken _token) public {\n        owner = msg.sender;\n        token = _token;\n    }\n\n\n\n    function publishBook(string memory _source, string memory _title, uint _price) public isNotIssued(_source) {\n        ebookSource[msg.sender][ebookCount[msg.sender]] = EBook(_title, _source, _price);\n        authorOf[_source] = msg.sender;\n        sourceToTitle[_source] = _title;\n        sourceToPrice[_source] = _price;\n        ebookCount[msg.sender]++;\n\n        publishedBookEvent(msg.sender, _source, _title, _price);\n    }\n\n\n\n    function purchaseBook(address _author,  string calldata _source, uint _amount)  isNotPurchased(_source) external {\n        require(authorOf[_source] == _author, 'Author has not issued that ebook');\n        require(_amount == sourceToPrice[_source], 'Wrong amount of funds');\n        require(token.transferFrom(msg.sender, _author, _amount), 'Transaction failed');\n\n        string memory _title = sourceToTitle[_source];\n        uint _price = sourceToPrice[_source];\n        EBook memory ebook =  EBook(_title, _source, _price);\n        \n        // add the book to the client's library\n        clientLib[msg.sender][clientLibCount[msg.sender]] = ebook;\n        isEbookOwned[msg.sender][_source] = true;\n        clientLibCount[msg.sender]++;\n        \n        purchasedBookEvent(msg.sender, _author, _source, _amount);\n    }\n}\n",
  "sourcePath": "/home/meeexy/Documents/dev/dbooks/contracts/EBookStorage.sol",
  "compiler": {
    "name": "solc",
    "version": "0.6.12+commit.27d51765.Emscripten.clang"
  },
  "schemaVersion": "3.3.1",
  "updatedAt": "2020-11-06T10:37:05.638Z",
  "networkType": "ethereum",
  "devdoc": {
    "kind": "dev",
    "methods": {},
    "version": 1
  },
  "userdoc": {
    "kind": "user",
    "methods": {},
    "version": 1
  }
}