{
  "contractName": "EbookStorage",
  "abi": [
    {
      "inputs": [
        {
          "internalType": "contract DBookToken",
          "name": "_token",
          "type": "address"
        }
      ],
      "stateMutability": "nonpayable",
      "type": "constructor"
    },
    {
      "inputs": [
        {
          "internalType": "string",
          "name": "",
          "type": "string"
        }
      ],
      "name": "authorOf",
      "outputs": [
        {
          "internalType": "address",
          "name": "",
          "type": "address"
        }
      ],
      "stateMutability": "view",
      "type": "function",
      "constant": true
    },
    {
      "inputs": [
        {
          "internalType": "address",
          "name": "",
          "type": "address"
        },
        {
          "internalType": "uint256",
          "name": "",
          "type": "uint256"
        }
      ],
      "name": "clientLib",
      "outputs": [
        {
          "internalType": "string",
          "name": "",
          "type": "string"
        }
      ],
      "stateMutability": "view",
      "type": "function",
      "constant": true
    },
    {
      "inputs": [
        {
          "internalType": "address",
          "name": "",
          "type": "address"
        }
      ],
      "name": "clientLibCount",
      "outputs": [
        {
          "internalType": "uint256",
          "name": "",
          "type": "uint256"
        }
      ],
      "stateMutability": "view",
      "type": "function",
      "constant": true
    },
    {
      "inputs": [
        {
          "internalType": "address",
          "name": "",
          "type": "address"
        }
      ],
      "name": "ebookCount",
      "outputs": [
        {
          "internalType": "uint256",
          "name": "",
          "type": "uint256"
        }
      ],
      "stateMutability": "view",
      "type": "function",
      "constant": true
    },
    {
      "inputs": [
        {
          "internalType": "address",
          "name": "",
          "type": "address"
        },
        {
          "internalType": "uint256",
          "name": "",
          "type": "uint256"
        }
      ],
      "name": "ebookSource",
      "outputs": [
        {
          "internalType": "string",
          "name": "",
          "type": "string"
        }
      ],
      "stateMutability": "view",
      "type": "function",
      "constant": true
    },
    {
      "inputs": [
        {
          "internalType": "address",
          "name": "",
          "type": "address"
        },
        {
          "internalType": "string",
          "name": "",
          "type": "string"
        }
      ],
      "name": "isEbookOwned",
      "outputs": [
        {
          "internalType": "bool",
          "name": "",
          "type": "bool"
        }
      ],
      "stateMutability": "view",
      "type": "function",
      "constant": true
    },
    {
      "inputs": [],
      "name": "token",
      "outputs": [
        {
          "internalType": "contract DBookToken",
          "name": "",
          "type": "address"
        }
      ],
      "stateMutability": "view",
      "type": "function",
      "constant": true
    },
    {
      "inputs": [
        {
          "internalType": "string",
          "name": "_source",
          "type": "string"
        }
      ],
      "name": "publishBook",
      "outputs": [],
      "stateMutability": "nonpayable",
      "type": "function"
    },
    {
      "inputs": [
        {
          "internalType": "address",
          "name": "_author",
          "type": "address"
        },
        {
          "internalType": "string",
          "name": "_source",
          "type": "string"
        },
        {
          "internalType": "uint256",
          "name": "_amount",
          "type": "uint256"
        }
      ],
      "name": "purchaseBook",
      "outputs": [],
      "stateMutability": "nonpayable",
      "type": "function"
    }
  ],
  "bytecode": "0x608060405234801561001057600080fd5b50604051610c39380380610c398339818101604052602081101561003357600080fd5b5051600080546001600160a01b03199081163317909155600180546001600160a01b0390931692909116919091179055610bc7806100726000396000f3fe608060405234801561001057600080fd5b50600436106100935760003560e01c8063c3ecc85711610066578063c3ecc857146102df578063c92ca39d14610305578063cc6091dd14610383578063dff934e014610443578063fc0c546a1461046f57610093565b8063456529a7146100985780636725b387146101395780636dd67886146101715780639d2831e814610239575b600080fd5b6100c4600480360360408110156100ae57600080fd5b506001600160a01b038135169060200135610477565b6040805160208082528351818301528351919283929083019185019080838360005b838110156100fe5781810151838201526020016100e6565b50505050905090810190601f16801561012b5780820380516001836020036101000a031916815260200191505b509250505060405180910390f35b61015f6004803603602081101561014f57600080fd5b50356001600160a01b031661051a565b60408051918252519081900360200190f35b6102256004803603604081101561018757600080fd5b6001600160a01b038235169190810190604081016020820135600160201b8111156101b157600080fd5b8201836020820111156101c357600080fd5b803590602001918460018302840111600160201b831117156101e457600080fd5b91908080601f01602080910402602001604051908101604052809392919081815260200183838082843760009201919091525092955061052c945050505050565b604080519115158252519081900360200190f35b6102dd6004803603602081101561024f57600080fd5b810190602081018135600160201b81111561026957600080fd5b82018360208201111561027b57600080fd5b803590602001918460018302840111600160201b8311171561029c57600080fd5b91908080601f01602080910402602001604051908101604052809392919081815260200183838082843760009201919091525092955061055d945050505050565b005b61015f600480360360208110156102f557600080fd5b50356001600160a01b03166106eb565b6102dd6004803603606081101561031b57600080fd5b6001600160a01b038235169190810190604081016020820135600160201b81111561034557600080fd5b82018360208201111561035757600080fd5b803590602001918460018302840111600160201b8311171561037857600080fd5b9193509150356106fd565b6104276004803603602081101561039957600080fd5b810190602081018135600160201b8111156103b357600080fd5b8201836020820111156103c557600080fd5b803590602001918460018302840111600160201b831117156103e657600080fd5b91908080601f0160208091040260200160405190810160405280939291908181526020018383808284376000920191909152509295506109ea945050505050565b604080516001600160a01b039092168252519081900360200190f35b6100c46004803603604081101561045957600080fd5b506001600160a01b038135169060200135610a10565b610427610a81565b6002602081815260009384526040808520825292845292829020805483516001821615610100026000190190911692909204601f810185900485028301850190935282825290929091908301828280156105125780601f106104e757610100808354040283529160200191610512565b820191906000526020600020905b8154815290600101906020018083116104f557829003601f168201915b505050505081565b60066020526000908152604090205481565b6007602090815260009283526040909220815180830184018051928152908401929093019190912091525460ff1681565b8060006001600160a01b03166004826040518082805190602001908083835b6020831061059b5780518252601f19909201916020918201910161057c565b51815160209384036101000a60001901801990921691161790529201948552506040519384900301909220546001600160a01b03169290921491506106229050576040805162461bcd60e51b8152602060048201526016602482015275109bdbdac81a5cc8185b1c9958591e481a5cdcdd595960521b604482015290519081900360640190fd5b336000908152600260209081526040808320600383528184205484528252909120835161065192850190610a90565b50336004836040518082805190602001908083835b602083106106855780518252601f199092019160209182019101610666565b51815160209384036101000a60001901801990921691161790529201948552506040805194859003820190942080546001600160a01b0319166001600160a01b039690961695909517909455505033600090815260039092529020805460010190555050565b60036020526000908152604090205481565b82828080601f0160208091040260200160405190810160405280939291908181526020018383808284376000920182905250338152600760209081526040918290209151865192955086945092508291908401908083835b602083106107745780518252601f199092019160209182019101610755565b51815160209384036101000a600019018019909216911617905292019485525060405193849003019092205460ff161591506107f99050576040805162461bcd60e51b815260206004820152601960248201527f596f7520616c7265616479206f776e207468652065626f6f6b00000000000000604482015290519081900360640190fd5b846001600160a01b0316600485856040518083838082843791909101948552505060405192839003602001909220546001600160a01b031692909214915061088a9050576040805162461bcd60e51b815260206004820181905260248201527f417574686f7220686173206e6f742069737375656420746861742065626f6f6b604482015290519081900360640190fd5b600154604080516323b872dd60e01b81523360048201526001600160a01b03888116602483015260448201869052915191909216916323b872dd9160648083019260209291908290030181600087803b1580156108e657600080fd5b505af11580156108fa573d6000803e3d6000fd5b505050506040513d602081101561091057600080fd5b5051610958576040805162461bcd60e51b8152602060048201526012602482015271151c985b9cd858dd1a5bdb8819985a5b195960721b604482015290519081900360640190fd5b336000908152600560209081526040808320600683528184205484529091529020610984908585610b0e565b50336000908152600760205260409081902090516001919086908690808383808284379190910194855250506040805160209481900385019020805460ff1916951515959095179094555050336000908152600690915220805460010190555050505050565b80516020818301810180516004825292820191909301209152546001600160a01b031681565b60056020908152600092835260408084208252918352918190208054825160026001831615610100026000190190921691909104601f8101859004850282018501909352828152929091908301828280156105125780601f106104e757610100808354040283529160200191610512565b6001546001600160a01b031681565b828054600181600116156101000203166002900490600052602060002090601f016020900481019282601f10610ad157805160ff1916838001178555610afe565b82800160010185558215610afe579182015b82811115610afe578251825591602001919060010190610ae3565b50610b0a929150610b7c565b5090565b828054600181600116156101000203166002900490600052602060002090601f016020900481019282601f10610b4f5782800160ff19823516178555610afe565b82800160010185558215610afe579182015b82811115610afe578235825591602001919060010190610b61565b5b80821115610b0a5760008155600101610b7d56fea264697066735822122040e0e4d25f2090c3bbe301c6fd8eadad37b79b0304acc97522c2f49c2bd5fea564736f6c634300060c0033",
  "immutableReferences": {},
  "source": "// SPDX-License-Identifier: MIT\npragma solidity ^0.6.0;\n\n// import \"@openzeppelin/contracts-ethereum-package/contracts/Initializable.sol\";\nimport './DBookToken.sol';\n\ncontract EbookStorage  {\n    address owner;\n    DBookToken public token;\n\n\n\n    // list of books issued by an author identified by thier address i.e. ebookSource[address][]\n    mapping (address => mapping(uint => string)) public ebookSource;\n    // count of books published by an author\n    mapping (address => uint) public ebookCount;\n    // mapping of ebook source to an author\n    mapping (string => address) public authorOf;\n\n\n\n    // list of books owned by a client identified by thier address i.e. clientLib[address][]\n    mapping (address => mapping(uint => string)) public clientLib;\n    // list of books owned by a client identified by thier address i.e. clientLib[address][]\n    mapping (address => uint) public clientLibCount;\n    // bool for book owned by a client\n    mapping (address => mapping(string => bool)) public isEbookOwned;\n\n\n\n    modifier isNotIssued(string memory _source) {\n        require(authorOf[_source] == address(0), 'Book is already issued');\n        _;\n    }\n\n\n\n    modifier isNotPurchased(string memory _source) {\n        require(!isEbookOwned[msg.sender][_source], 'You already own the ebook');\n        _;\n    }\n\n\n\n    constructor(DBookToken _token) public {\n        owner = msg.sender;\n        token = _token;\n    }\n\n\n\n    function publishBook(string memory _source) public isNotIssued(_source) {\n        ebookSource[msg.sender][ebookCount[msg.sender]] = _source;\n        authorOf[_source] = msg.sender;\n        ebookCount[msg.sender]++;\n    }\n\n\n\n    function purchaseBook(address _author,  string calldata _source, uint _amount)  external isNotPurchased(_source) {\n        require(authorOf[_source] == _author, 'Author has not issued that ebook');\n        require(token.transferFrom(msg.sender, _author, _amount), 'Transaction failed');\n\n        // add the book to the client's library\n        clientLib[msg.sender][clientLibCount[msg.sender]] = _source;\n        isEbookOwned[msg.sender][_source] = true;\n        clientLibCount[msg.sender]++;\n    }\n}\n",
  "sourcePath": "/home/meeexy/Documents/Dev/dbooks/contracts/EbookStorage.sol",
  "compiler": {
    "name": "solc",
    "version": "0.6.12+commit.27d51765.Emscripten.clang"
  },
  "schemaVersion": "3.3.1",
  "updatedAt": "2020-11-04T18:37:11.863Z",
  "networkType": "ethereum",
  "devdoc": {
    "kind": "dev",
    "methods": {},
    "version": 1
  },
  "userdoc": {
    "kind": "user",
    "methods": {},
    "version": 1
  }
}